:020000040800F2
:10000000E806002089010008BF180008A9160008AA
:10001000BD1800083F0300088B1B0008000000000B
:10002000000000000000000000000000C5180008EB
:100030004103000800000000C1180008C7180008AC
:10004000A3010008A3010008A3010008A301000800
:10005000A3010008C318000845030008690300084D
:1000600091030008A3010008A3010008A3010008F0
:10007000A3010008A3010008A3010008A3010008D0
:10008000A3010008A301000891020008A3010008D1
:10009000A3010008A3010008A3010008A3010008B0
:1000A000A301000835190008A3010008A3010008F6
:1000B000A3010008A3010008A3010008A301000890
:1000C000A3010008A3010008A3010008A301000880
:1000D000A3010008A3010008A3010008A301000870
:1000E000A3010008A3010008A301000800F002F822
:1000F00000F03AF80AA090E8000C82448344AAF188
:100100000107DA4501D100F02FF8AFF2090EBAE885
:100110000F0013F0010F18BFFB1A43F0010318473B
:100120001820000038200000103A24BF78C878C199
:10013000FAD8520724BF30C830C144BF04680C60ED
:10014000704700000023002400250026103A28BF35
:1001500078C1FBD8520728BF30C148BF0B60704739
:100160001FB51FBD10B510BD00F058F81146FFF7C0
:10017000F7FF01F01BFD00F076F803B4FFF7F2FF84
:1001800003BC00F07DF8000009488047094800479B
:10019000FEE7FEE7FEE7FEE7FEE7FEE7FEE7FEE737
:1001A000FEE7FEE704480549054A064B7047000094
:1001B00031190008ED000008E8000020E8060020E2
:1001C000E8020020E80200204FF0000200B51346CC
:1001D00094469646203922BFA0E80C50A0E80C5067
:1001E000B1F12001BFF4F7AF090728BFA0E80C5018
:1001F00048BF0CC05DF804EB890028BF40F8042B11
:1002000008BF704748BF20F8022B11F0804F18BF7D
:1002100000F8012B7047704770477047754600F033
:100220002BF8AE4605006946534620F00700854688
:1002300018B020B5FFF7B6FFBDE820404FF000062C
:100240004FF000074FF000084FF0000B21F00701BE
:10025000AC46ACE8C009ACE8C009ACE8C009ACE801
:10026000C0098D46704710B50446AFF300802046A4
:10027000BDE81040FFF781BF0048704788000020AC
:1002800001491820ABBEFEE72600020070470000BF
:1002900010B5114800F00CF90F4800F006F980B2D3
:1002A00001F02AFE4FF066320C4B01F039FE0022BD
:1002B0000B4B01F0C9FC01F095FC0A4B4FF40051C7
:1002C000B0F17E5F01DB002200E00122BDE81040BA
:1002D000184600F03DBB00001000002066660A4092
:1002E00000FEAF400010014070B504460068816810
:1002F000C943C90717D1816821F00101816000F06D
:100300002DFB05460AE000BF00F028FB401B022839
:1003100004D920688068C043C00706D02068806880
:10032000C043C007F0D0002070BDA06A40F01000AC
:10033000A062E06A40F00100E062012070BDFEE7CB
:100340007047000010B5012000F0FEF901221103F2
:10035000034800F0FDFABDE81040024800F062BF1B
:10036000000C01404000002010B5022000F0ECF924
:1003700000224FF48051044800F0EAFABDE8104032
:10038000024800F04FBF0000000C01404000002078
:1003900010B5042000F0D8F9BDE81040014800F085
:1003A00015BF00004000002070470000F8B5002491
:1003B000009490F824202546012A12D0012280F8CA
:1003C00024204A681F23072A0DD20668776B521E25
:1003D00002EB820293409F430B6893401F43776375
:1003E00019E00220F8BD06680D2A0AD2376BD21F29
:1003F00002EB820293409F430B6893401F43376395
:1004000009E0F76A0D3A02EB820293409F430B68C2
:1004100093401F43F7620A68072306680A2A0AD333
:10042000F7680A3A02EB420293409F438B6893407D
:100430001F43F76008E0376902EB420293409F4395
:100440008B6893401F4337610A68102A01D0112A34
:1004500020D1124B02689A4217D193681B0219D41B
:10046000936843F4000393600968102912D10C4982
:100470000C4A0968B1FBF2F101EB8101490000E08F
:10048000491E00910029FBD104E0816A41F020015E
:100490008162012480F824502046F8BD00240140E8
:1004A0000C00002040420F0070470068C06C70478D
:1004B00010B5044600684168890626D50168890799
:1004C00023D5A16AC90603D4A16A41F40071A162CF
:1004D0008168C1F34241072910D1217B71B941687C
:1004E00021F020014160A06A20F48070A062A06A1F
:1004F000C00403D4A06A40F00100A0622046FFF7C8
:10050000D3FF21686FF01200086020684168090677
:100510002ED5016849072BD5A16AC90603D4A16A63
:1005200041F40051A1628168C1F30231072909D069
:100530004168490515D48168C1F34241072910D1AA
:10054000217B71B9416821F080014160A06A20F4EB
:100550008050A062A06AC00503D4A06A40F00100E8
:10056000A0622046FFF720FF21686FF00C000860B2
:100570002068416849060DD50068C0070AD0A06A06
:1005800040F48030A062204600F094F821686FF0BB
:100590000100086010BD00002DE9F0414FF0000798
:1005A00004003D467ED0A06A002628B9E66284F8A1
:1005B0002460204600F080F82046FFF795FEA16AEF
:1005C000C90600D420B1A06A40F01000A06269E022
:1005D000A16A21F4885141F00201A1626268E169D7
:1005E000237B0A4347EA43010A43A1684FF480771B
:1005F000B94209D0012907D05FF0000194F814C076
:10060000BCF1010F02D00AE03946F7E7F3B1A36A63
:1006100043F02003A362E36A43F00103E36223682B
:10062000D3F804C02CF4694C4CEA010CC3F804C0A4
:1006300021688B68DFF870C003EA0C0313438B60FA
:10064000A168B9420BD0012909D00CE0DFF85CC0E9
:10065000A3690CEB43330B4343F40061DFE7218ACA
:100660000D05A5F580152168CB6A23F470032B4393
:10067000CB62216889680E4B1940914208D1E6622D
:10068000A16A21F0020141F00101A162BDE8F081FF
:10069000A06A20F0020040F01000A062E06A40F082
:1006A0000100E0620120F1E7FDF7E1FF00E0FFFF5C
:1006B000FE0E1FFF7047000000B585B000210091BD
:1006C00001910291039100681249884220D1124899
:1006D000816941F400718161816901F400710491C3
:1006E000816941F0040181618069694600F004007C
:1006F00004900820009003200190084800F030F892
:1007000000221146122000F09DF9122000F08CF911
:1007100005B000BD00240140001002400008014067
:1007200070B5044600F01AF90546601C02D0044872
:100730000078044400F012F9401BA042FAD370BDC7
:100740000000002070470000044910B50A6802420A
:1007500002D00860FFF7F6FF10BD0000140401404E
:100760002DE9F84FDFF8B891002409F1040A0AF1E5
:10077000040B23460F270BF1040EC9E00125A54009
:100780002A40AA427DD1674ED1F804C0ACEB0608DE
:10079000B44532D014DCBCF1030F3AD009DCBCF113
:1007A000000F2AD0BCF1010F1CD0BCF1020F31D1D7
:1007B0001DE0BCF1110F17D0BCF1120F2AD119E0C6
:1007C000B8F5881F19D006DCB8F5803F15D0B8F50C
:1007D000801F1FD111E0B8F5001F0ED0B8F5041F1F
:1007E00018D10AE0CB6815E0CB681B1D12E0CB687E
:1007F00008330FE0CB680C330CE08B682BB1012B76
:100800004FF0080303D0456104E0042302E00561D2
:1008100000E00023FF2A01D8064601E000F10406AB
:100820004FEA840501D9A5F12005D6F8008007FA22
:1008300005FC28EA0C0803FA05F548EA0508C6F89D
:1008400000804D68ED0062D5374DAE6946F0010677
:10085000AE61AD6924F0030605F001050095334D46
:1008600006EB050CDCF80850A607360F07FA06F869
:1008700025EA0805DFF8B880404503D14FF00008AD
:1008800017E044E0DFF8AC80404502D14FF00108AA
:100890000FE0DFF8A480404502D14FF0020808E0E5
:1008A000DFF89880404502D14FF0030801E04FF097
:1008B000040808FA06F848EA0508CCF808804D68EC
:1008C000D9F80060ED034D4601D5164300E096438C
:1008D0002E604D68DAF80060AD03554601D5164329
:1008E00000E096432E604D68DBF80060ED025D4647
:1008F00001D5164300E096432E604D68DEF8006097
:10090000AD02754601D5164300E096432E60641C87
:100910000D682A46E5407FF431AFBDE8F88F00004E
:1009200000040140000011100010024000000140CE
:1009300000080140000C014000100140001401407B
:10094000C26821EA02030A4043EA0241016170479A
:100950000AB1016170470904FBE7000001488068A3
:1009600070470000000000200248816802781144AE
:100970008160704700000020074810B5016841F011
:1009800010010160032000F07DF8002000F006F85F
:1009900000F024F8002010BD0020024070B50D4D7D
:1009A00004464FF47A712878B1FBF0F00A490968DF
:1009B000B1FBF0F000F04AFB48B9102C07D200223E
:1009C0002146501E00F03EF800206C6070BD0120F2
:1009D00070BD0000000000200C000020104808B589
:1009E000816941F001018161816901F0010100919A
:1009F000C16941F08051C161C069002200F080509E
:100A000000901146052000F01DF8052000F00CF8BC
:100A10000448416821F0E06141F08061416008BD17
:100A20000010024000000140002809DB00F01F0216
:100A3000012191404009800000F1E020C0F8001140
:100A400070470000F0B40E4B1B680C46C3F3022342
:100A5000C3F10705042D00D90425191D072901D26A
:100A6000002300E0DB1E012606FA05F1491E2140A5
:100A700099409E40761E16403143F0BC01F086B886
:100A80000CED00E0064900F0070208684FF6FF038E
:100A9000184040EA0220034A1043086070470000F3
:100AA0000CED00E00000FA052DE9F843054600785A
:100AB000354CC00754D0E0690026C00008D4E06976
:100AC00040F08050E061E069012600F08050009025
:100AD0002E480168C90512D40168804641F480712E
:100AE0000160FFF73BFF074605E000BFFFF736FF59
:100AF000C01B642823D8D8F80000C005F6D5206AAA
:100B000010F4407021D0A98801F4407181421CD0BA
:100B1000206A1F49012220F440700A6000220A6006
:100B20002062C00711D0FFF719FF074641F288384D
:100B300008E000BFFFF712FFC11B414502D90320A7
:100B4000BDE8F883206A8007F4D5206A696820F43C
:100B50004070084320621EB1E06920F08050E061DF
:100B60002878800705D56068A96820F440400843CC
:100B700060602878C00605D56068E96820F48000C8
:100B8000084360600020DBE7001002400070004076
:100B9000400442422DE9F0470F46050061D0434E24
:100BA000306800F00700B84209D2306820F0070032
:100BB00038433060306800F00700B84251D12868EF
:100BC0003B4C810712D5400703D5606840F4E060D4
:100BD00060602878000703D5606840F4605060606A
:100BE0006068A96820F0F000084360602878C007BA
:100BF00028D06868012810D02168022810D0890701
:100C000000292EDA616821F0030101436160FFF7DA
:100C1000A5FE804641F288390DE021688903EFE79F
:100C20008901EDE7FFF79AFEA0EB0801494502D9DB
:100C30000320BDE8F0876068696800F00C00B0EB45
:100C4000810FEFD1306800F00700B8420BD930684F
:100C500020F0070038433060306800F00700B842E9
:100C600001D00120E5E72878400705D56068E968EC
:100C700020F4E060084360602878000706D56068CB
:100C8000296920F4605040EAC100606000F018F863
:100C90006168084AC1F30311515CC8400649086005
:100CA00006480068FFF77AFE0020C2E700200240F5
:100CB00000100240262100080C0000200400002043
:100CC00012A185B00FC98DE80F0014A0144A006866
:100CD00004905168134801F00C03042B10D0082B2A
:100CE0000ED1C1F38343C9031DF803000AD551682F
:100CF00004AAC1F34041515C0A4A5043B0FBF1F0F1
:100D000005B0704708494843FAE7000002030405AC
:100D1000060708090A0B0C0D0E0F10100102000047
:100D20000010024000127A0000093D002DE9F84F42
:100D3000040070D02078C04DC00749D06868C0F367
:100D40008100012807D06868C0F38100022809D11A
:100D50006868C00306D52868800339D56068002814
:100D6000E7D035E06068B0F5803F0BD010B1B0F54A
:100D7000A02F11D0286820F480302860286820F443
:100D8000802002E0286840F480302860606890B1DC
:100D9000FFF7E4FD06460AE0286840F4802028605A
:100DA000F0E700BFFFF7DAFD801B642873D82868DE
:100DB0008003F7D50CE0FFF7D1FD064605E000BF44
:100DC000FFF7CCFD801B6428F0D828688003F7D497
:100DD00020789A4E80074FF001094FF0000839D56E
:100DE000686810F00C0F07D06868C0F38100022813
:100DF00009D16868C00306D42868800714D5206923
:100E0000012808D110E02069B0B1C6F80090FFF7C2
:100E1000A5FD074605E00AE1FFF7A0FDC01B02287B
:100E2000C4D828688007F7D52868616920F0F800E1
:100E300040EAC10028600DE0C6F80080FFF78EFD93
:100E4000074604E0FFF78AFDC01B022823D8286864
:100E50008007F7D4207800072CD57948A169D9B14B
:100E6000C0F80090FFF77AFD074604E0FFF776FD33
:100E7000C01B02280FD8686A8007F7D571484FF465
:100E8000FA510068B0FBF1F0009000BF0098411EDD
:100E90000091FAD20EE080E0C0F80080FFF75EFD1E
:100EA000074604E0FFF75AFDC01B022875D8686AA0
:100EB0008007F7D42078400760D5E8690027C00094
:100EC00008D4E86940F08050E861E869012700F043
:100ED000805000905C480168C90513D401688346BE
:100EE00041F480710160FFF739FD824606E000BFE2
:100EF000FFF734FDA0EB0A0064284ED8DBF80000B1
:100F0000C005F5D5E06801280AD008B1052813D03E
:100F1000286A20F001002862286A20F0040002E01C
:100F2000286A40F001002862E06841F2883B98B1ED
:100F3000FFF714FD82460BE0286A40F004002862A7
:100F4000EEE700BFFFF70AFDA0EB0A0159455AD8AA
:100F5000286A8007F6D50CE0FFF700FD824605E021
:100F6000FFF7FCFCA0EB0A0159454CD8286A800722
:100F7000F6D41FB1E86920F08050E861E06988B3D9
:100F80006968C1F38101022944D00228C6F8608053
:100F900004D0FFF7E3FC044638E034E0FFF7DEFC62
:100FA000074604E0FFF7DAFCC01B02282BD82868AC
:100FB0008001F7D4206AB0F5803F05D16868A16848
:100FC00020F4003008436860D4E9080108436968E8
:100FD00021F4741108436860C6F86090FFF7BEFC06
:100FE000044606E025E000BFFFF7B8FC001B02281E
:100FF00009D828688001F7D51BE000BFFFF7AEFCD9
:10100000001B022802D90320BDE8F88F2868800160
:10101000F4D40EE00128F7D06868226A00F4803129
:10102000914204D1616A00F47010884201D001201D
:10103000EAE70020E8E7000000100240000042421A
:10104000800442420C0000200070004010B5401E99
:10105000B0F1807F01D3012010BD4FF0E02460612A
:101060000F21601700F092FD0020A0610720206191
:10107000002010BD7047704710B590F83C20012A41
:1010800022D0012280F83C20CA688C6822F4407289
:1010900022434C6822F4806222430C6822F40062EE
:1010A00022430C6922F4805222434C6922F40052FC
:1010B0002243C969002322F480420A4301684A643A
:1010C00080F83C30002010BD022010BD70B590F8B3
:1010D0003C20012A26D0012480F83C40022280F8DE
:1010E0003D2003685A689D6822F070060A68324302
:1010F0005A600D4B02689A4208D0B2F1804F05D079
:101100000A4B9A4202D00A4B9A4204D1496825F010
:1011100080031943916080F83D40002180F83C1025
:10112000084670BD022070BD002C01400004004044
:101130000008004010B5040003D094F83D0010B141
:1011400007E0012010BD002084F83C00204600F09C
:101150001FF8022084F83D00211D206800F0FAFBF2
:10116000012084F8460084F83E0084F83F0084F8AB
:10117000400084F8410084F8420084F8430084F879
:10118000440084F8450084F83D00002010BD0000B4
:1011900008B500680B49884212D10B48816941F4B7
:1011A000006181618069002200F4006000901146B6
:1011B0001920FFF747FCBDE808401920FFF734BCB1
:1011C00008BD0000002C01400010024090F83D10C6
:1011D000012901D001207047022180F83D100168EB
:1011E000CA6842F00102CA6000680B49884208D010
:1011F000B0F1804F05D00949884202D008498842A1
:1012000004D1816801F00701062903D0016841F08B
:101210000101016000207047002C014000040040E3
:10122000000800400168CA6822F00102CA60016833
:101230000A6A41F211131A4207D10A6A9B101A4234
:1012400003D10A6822F001020A60012180F83D10F2
:101250000020704770B5044690F83C00012817D074
:10126000012584F83C50022084F83D002068826803
:1012700022F0770222F47F4282600868502830D042
:101280000DDC20284DD005DC98B310283BD148E078
:10129000022070BD302844D0402834D139E0602885
:1012A00028D0702806D0B0F5805F2CD0B0F5005F54
:1012B00029D10AE0CB68D1E90121206800F08DFB3B
:1012C0002068816841F0770109E0CB68D1E901210C
:1012D000206800F082FB2068816841F480418160D1
:1012E00011E0CA684968206800F02CFC5021206891
:1012F00007E016E0CA684968206800F034FC602105
:10130000206800F074FB84F83D50002084F83C0015
:1013100070BDCA684968206800F014FC402120684C
:10132000EFE7226801461046EBE7704770B50446C8
:10133000006801694FF00005C943890715D4C168E9
:10134000C943890711D4E91E016101202077206873
:1013500080698007204602D0FFF7E7FF04E000F035
:10136000BFF8204600F04EF9257720680169C9438F
:10137000490717D4C168C943490713D46FF0040162
:101380000161022020772068806910F4407F2046A8
:1013900002D0FFF7CAFF04E000F0A2F8204600F0F8
:1013A00031F9257720680169C943090716D4C16856
:1013B000C943090712D46FF00801016104202077A6
:1013C0002068C0698007204602D0FFF7AEFF04E026
:1013D00000F086F8204600F015F9257720680169AD
:1013E000C943C90617D4C168C943C90613D46FF0ED
:1013F00010010161082020772068C06910F4407F47
:10140000204602D0FFF791FF04E000F069F8204683
:1014100000F0F8F8257720680169C943C90708D1A9
:10142000C168C943C90704D1891E0161204600F083
:1014300039F920680169C943090609D4C168C9435B
:10144000090605D46FF0800101612046FFF712FE06
:1014500020680169C943490609D4C168C9434906DE
:1014600005D46FF040010161204600F01CF92068AE
:101470000169C94389060BD4C168C943890607D4E9
:101480006FF0200101612046BDE87040FFF7F3BD19
:1014900070BD000000B585B000210091019102915E
:1014A000039100680B49884212D10B48816941F0D1
:1014B000040181618069694600F0040004904FF4E2
:1014C000807000900220019003900448FFF748F9D3
:1014D00005B000BD002C0140001002400008014092
:1014E000704770B5044690F83C000D4601280AD0BC
:1014F000012084F83C0042B1042A18D0082A2AD0DE
:101500000C2A4DD139E0022070BD206800F078FA35
:101510002068816941F0080181612068816921F0BA
:1015200004018161206881692A69114311E0206802
:1015300000F08EFA2068816941F4006181612068C1
:10154000816921F480618161206881692A6941EAA9
:101550000221816124E0206800F0A6FA2068C169B8
:1015600041F00801C1612068C16921F00401C16135
:101570002068C1692A69114311E0206800F0C0FAAF
:101580002068C16941F40061C1612068C16921F42A
:101590008061C1612068C1692A6941EA0221C16193
:1015A000002084F83C0070BD10B5040003D094F80E
:1015B0003D0010B107E0012010BD002084F83C0080
:1015C000204600F01EF8022084F83D00211D20680E
:1015D00000F0C0F9012084F8460084F83E0084F849
:1015E0003F0084F8400084F8410084F8420084F809
:1015F000430084F8440084F8450084F83D0000204E
:1016000010BD70477047000010B50446022249B172
:1016100004290ED0082913D094F84100012816D0CF
:10162000012010BD94F83E000128F9D184F83E2035
:101630000FE094F83F000128F2D184F83F2008E041
:1016400094F840000128EBD184F8402001E084F8B0
:1016500041200122206800F0B3F90F492068884238
:1016600003D1426C42F4004242642068884208D0B0
:10167000B0F1804F05D00949884202D0084988421C
:1016800004D1816801F00701062903D0016841F007
:1016900001010160002010BD002C01400004004049
:1016A0000008004070477047FEE700003EB500218B
:1016B0001148009101910F4A02910260816001730B
:1016C000017501244FF460220461C2614160FEF79C
:1016D00063FF08B172B6FEE70320CDE900040720DE
:1016E000029069460448FEF761FE002801D072B6F8
:1016F000FEE73EBD00240140100000202DE9F0432C
:1017000085B00024354800940194029403948169C3
:1017100041F010018161816901F01001049181693A
:1017200041F020018161816901F02001049181690A
:1017300041F004018161816901F004010491816932
:1017400041F0080181618069DFF8948000F00800B1
:101750004FF400550490002229464046FFF7F8F860
:10176000DFF880906F10002239464846FFF7F0F806
:101770000095022601250396CDE9015469464046AD
:10178000FEF7EEFF072000901748CDE901056946F6
:101790001648FEF7E5FF00970396CDE90154694628
:1017A0004846FEF7DDFF002211460620FFF74AF902
:1017B0000620FFF739F9002211460720FFF742F90A
:1017C0000720FFF731F9002211460820FFF73AF908
:1017D0000820FFF729F905B0BDE8F08300100240AA
:1017E00000100140000C01400000211000080140E1
:1017F00010B596B000240F94109411941294139481
:101800001C2108A81494FEF7DFFC20216846FEF78F
:10181000DBFC2948274901604FF4FA51C0E9011463
:101820006321C0E903148021C0E90541FFF782FC70
:1018300008B172B6FEE74FF480500F900FA91E4812
:10184000FFF708FD08B172B6FEE71B48FFF7ACFED4
:1018500008B172B6FEE7139413A917481494FFF762
:1018600035FC08B172B6FEE7602008901920CDE97A
:1018700009040B940C940D94002208A90E480E94B0
:10188000FFF72FFE08B172B6FEE700944FF4005048
:10189000CDE90440029401940394694606480794F4
:1018A000FFF7EAFB08B172B6FEE70348FFF7F2FD67
:1018B00016B010BD002C014040000020FEE7FEE7FE
:1018C000704770477047FFF74FB830B593B0282185
:1018D0006846FEF779FC14210AA8FEF775FC00247F
:1018E00001250F9410942804CDE90050119412940E
:1018F00007946846FFF71AFA08B172B6FEE70F20A0
:101900000A90CDE90B540D9400210AA80E94FFF71C
:1019100041F908B172B6FEE702200F9011940FA8AA
:10192000FFF7C2F8002801D072B6FEE713B030BD51
:101930007047000010B50548FFF7F8FCBDE81040FF
:101940004FF480510248FEF7FBBF0000400000202A
:10195000000C0140F0B50268164B174C174D4FF0C4
:101960008047984205D0B84203D0A04201D0A84297
:1019700003D122F070064A683243984205D0B8423B
:1019800003D0A04201D0A84203D122F44074CA6817
:1019900022434C6922F08002224302608A68C262BC
:1019A0000A688262984201D109690163012141619B
:1019B000F0BD0000002C0140000400400008004081
:1019C00010B501F01F030121046A99408C430462A1
:1019D000016A9A401143016210BD10B5846842EA61
:1019E000032224F47F440A432243826010BD8268AC
:1019F00022F070020A4342F0070181607047000044
:101A000030B5026A22F001020262026A4368846908
:101A100024F073050C682C4322F002058A682A43DF
:101A20000A4DA8420BD122F00805CA6823F440737E
:101A30002A434D6922F004021D438B692B43436006
:101A4000846149684163026230BD0000002C01409E
:101A500030B5026A22F010020262026A43688469A9
:101A60000D6824F4E64444EA05248D6822F020023F
:101A700042EA05120B4DA8420ED1CD6822F0800239
:101A800042EA05124D6923F4406343EA85038D69F8
:101A900022F0400243EA8503436084614968816320
:101AA000026230BD002C014030B5026A22F480721F
:101AB0000262036A4268C46923F4007324F0730568
:101AC0000C682C438D6843EA05230C4DA8420ED1C7
:101AD000CD6823F4006343EA05234D6922F44052A4
:101AE00042EA05128D6923F4806342EA05124260DE
:101AF000C4614968C163036230BD0000002C01402D
:101B000030B5026A22F480520262046A4268C369F4
:101B10000D6823F4E64343EA05238D6824F400545A
:101B200044EA0534064DA84204D14D6922F48042AE
:101B300042EA85124260C36149680164046230BDB3
:101B4000002C014010B5036A046A24F00104046209
:101B5000846924F0F00444EA021423F00A020A43E0
:101B60008461026210BD10B5036A23F010030362A2
:101B70008369046A23F4704343EA023224F0A00329
:101B800043EA01118261016210BDFEE70907090EF7
:101B9000002804DB00F1E02080F80014704700F01A
:101BA0000F0000F1E02080F8141D7047FEF7E4FEFE
:101BB000FFF78BFEFFF7A2FDFFF71AFEFFF776FD9A
:101BC00000210748FFF720FD054D002428684463E5
:101BD0003220FEF7A5FD641CA4B2642CF6D9F4E70C
:101BE0004000002021F00042A2F16052B2F5801FB7
:101BF00001F0004328BFD2F17F6C0BD95FEA001CD3
:101C000043EAC20242EB507018BF704728BF20F071
:101C100001007047B2F5801FBCBF184670474FEAFD
:101C2000410C1CF5001F02D2084600F077BA70B5CF
:101C300000F020FA00000089FFF7F6BF4FF00040E7
:101C4000A0F58000704700002DE9C04130B4DFF8F6
:101C5000A0C23CEA111418BF3CEA131400F0EC8057
:101C600081EA03051CEA111444EAD57418BF1CEA82
:101C7000131500F0C780A4EB05044FF0004545EABA
:101C8000C12145EAC32341EA505143EA525304F1CA
:101C90007F74994204F500344FEAC0204FEAC22213
:101CA00008BF904200F09C804FEA13650FF2401687
:101CB000765D4FEA134506FB05F7C7F1807706FB13
:101CC00007F74FEAD737A7FB03687642C8F5803895
:101CD000A7FB06CE38BFA8F1010807FB08E64FF0C6
:101CE000000EA6FB028CE6FB03CEDCF1000CCEF16D
:101CF000004E38BFAEF1010EA6FB0C584FF00007A6
:101D00004FF00005E6FB0E87A1FB08C6A0FB07CE3F
:101D100016EB0E0645F10005E1FB076515F1E04EF7
:101D20007EBFA4F580345FEA46066D4116F1800758
:101D300045F100054FEA17274FEA066647EA0567AF
:101D4000A6F1DE46B6F1805F4FEA15251FD9384669
:101D500024F0010C05EBC471BCF1FE6F01EB0C111A
:101D600002D8F0BCBDE8008124425CBF01F5801EB2
:101D70009EEAC47F02D4F0BCBDE80081244238D47E
:101D8000F0BCA1F1C041BDE8004100F0C1B94FEA8B
:101D9000D22242EA43524FEAD323A7FB02864FEAFC
:101DA000D02040EA415007FB03661EEA0E0F4FEABF
:101DB000D12105FB026658BFA6EB0056B6EB0056D4
:101DC0004FEA520E4EEAC37E18EB0E0E56EB530E40
:101DD000BDD518EB02085E417F1C55F10005B6E742
:101DE0004FF480154FF000074FF000064FF0000849
:101DF000ADE7F0BC4FF0000001F1C04101F000413F
:101E0000BDE8008111EA0C1F0CEA131500D00CE0AC
:101E100013EA0C1F00F025804FF00000F0BC81EAAF
:101E2000030101F00041BDE80081F0BCBDE80041C4
:101E300081EA030100F06CB9F0BCBDE8004170B567
:101E400000F018F9097EFC3E00F007B881EA0301B2
:101E50004FF0000001F00041704781EA030100F0FB
:101E600057B9F0BCBDE800414FF000002149704770
:101E7000FFFDFBF9F7F5F4F2F0EEEDEBE9E8E6E44F
:101E8000E3E1E0DEDDDBDAD8D7D5D4D3D1D0CFCDD6
:101E9000CCCBCAC8C7C6C5C4C2C1C0BFBEBDBCBB0F
:101EA000BAB9B8B7B6B5B4B3B2B1B0AFAEADACAB0A
:101EB000AAA9A8A8A7A6A5A4A3A3A2A1A09F9F9EE4
:101EC0009D9C9C9B9A999998979796959594939396
:101ED000929191908F8F8E8E8D8C8C8B8B8A89892D
:101EE00088888787868585848483838282818180B0
:101EF0000000FF070000F87FB0FA80F310FA03F14A
:101F00000AD0C3F11D0303F580634FEA41504FEA45
:101F1000035202EBD12170474FF0000070470000E0
:101F2000DFF848C170B51CEA111E1EBF1CEA13156C
:101F30009EEA0C0F95EA0C0F00F06F8081EA030413
:101F400023EA4C134EEAD47E21EA4C1141F480116D
:101F500043F48013AE44A1FB024CA0FB0365AEF139
:101F60007F7E361955EB0C05A1FB034C4CF10003A9
:101F7000A0FB021C16EB0C06654153F1000309425D
:101F800018BF46F0010613F4007F0BD14FEA03316E
:101F90004FEA0530340341EA155140EA16506FF01C
:101FA00003020AE04FEAC3214FEAC520F40241EAE6
:101FB000555140EA56506FF0020202EB2E4201EBFF
:101FC000025585EACE710AD05FEA440C18BF24F0AE
:101FD000004450F1000041F1000120EAD47040F2C9
:101FE000FE7C624500D270BDA84214BF4FF0804411
:101FF0004FF04044002E08BF0024BEF1806FA8BF00
:10200000A1F1C041BDE8704080F282804FF0000035
:1020100001F1C04101F0004170479EEA0C0F0CEA4B
:10202000131518BF95EA0C0F06D04FF0000081EA97
:10203000030E0EF0004170BD00F01CF88900013E57
:1020400000F007B800F009B84FEA430C5FEA5C5CA7
:1020500008D081EA030100F05BB84FEA410C5FEA67
:102060005C5CF6D14FF00000014970470000FF07AB
:102070000000F87F0EF1020E2EF0030E5EF8046BE6
:10208000364205D4012A43EB030515F5001F12D88B
:10209000012841EB010C1CF5001F0CD80ED14FEAB2
:1020A000D17C15F5001F0CEB4C0C0CF1020C08BF99
:1020B0004CEBD37C04E04FF0080C01E04FEAD37CFA
:1020C0000CEB4C0526FA05F606F00706B6F1040CF3
:1020D00006D20EEB860CBDE870404CF0010C604758
:1020E000DFE80CF0090B02024FF000414FF0000056
:1020F000A1F5002170BD19461046012851EB0104DD
:1021000018BFD4F5001484BF002001F0004170BD59
:102110000808A0F500114FEA31017047FF2141EA9C
:10212000D050C00570470000000000000000010210
:1021300003040607080900005821000800000020D9
:10214000100000002801000868210008100000208D
:10215000D806000044010008010000001000000043
:08216000000000000024F4005F
:04000005080000ED02
:00000001FF
